:100000000C942A000C943F000C943F000C943F0089
:100010000C943F000C943F000C943F000C943F0064
:100020000C943F000C943F000C943F000C943F0054
:100030000C943F000C943F000C943F000C943F0044
:100040000C943F000C943F000C943F000C943F0034
:100050000C943F0011241FBECFE5D8E0DEBFCDBF1A
:1000600010E0A0E6B0E0E6E7F1E002C005900D92F6
:10007000AA36B107D9F70E9451000C94B9000C942C
:10008000000080EC87B986E886B9089597B1907E24
:100090008770982B97B9369A3699FECF84B195B16F
:1000A00008958FEF87BB87E084BB0E94410006EF75
:1000B00017E2EE24EA9483E0F82E9AE0C92ED12CC0
:1000C000CFEFD1E022E0B22E34E0A32E80E00E94F8
:1000D0004600282F30E0832F922FB8010E94A50000
:1000E000FB01832F922FB7010E94A500CB01B6011F
:1000F0000E94A5002FE030E0DF01A05ABF4FFC01B5
:10010000E05AFF4FC8BBD5BB8091600088BB87EE2B
:1001100093E00197F1F700C00000C8BBB5BA8C911D
:1001200088BB87EE93E00197F1F700C00000C8BBE1
:10013000A5BA808188BB87EE93E00197F1F700C0F4
:10014000000021503109F1F6C1CFAA1BBB1B51E1C0
:1001500007C0AA1FBB1FA617B70710F0A61BB70B37
:10016000881F991F5A95A9F780959095BC01CD01DC
:060170000895F894FFCF92
:0A017600C0F9A4B0999282F88090BD
:00000001FF
