:100000000C942A000C943F000C943F000C943F0089
:100010000C943F000C943F000C943F000C943F0064
:100020000C943F000C943F000C943F000C943F0054
:100030000C943F000C943F000C943F000C943F0044
:100040000C943F000C943F000C943F000C943F0034
:100050000C943F0011241FBECFE5D8E0DEBFCDBF1A
:1000600010E0A0E6B0E0E2EAF1E002C005900D92F7
:10007000AA36B107D9F70E9451000C94CF000C9416
:10008000000080EC87B986E886B9089597B1907E24
:100090008770982B97B9369A3699FECF84B195B16F
:1000A00008958FEF87BB87E084BB0E944100EE2458
:1000B000EA9483E0F82E99E0592E25E0C22ED12C47
:1000C00034E6A32EB12C0AE010E0CFEFD1E042E0FD
:1000D000742E54E0652E80E00E944600982F80E048
:1000E000B7010E94BB00569EC001579E900D11247F
:1000F000B6010E94BB009B01205E3F4FC901B501C4
:100100000E94BB004B01B8010E94BB00FB01C9016A
:10011000B8010E94BB002FE030E0D401A05ABF4FCD
:10012000BF01605A7F4FAC01405A5F4F4A01C8BBC4
:10013000D5BB4C9148BB87EE93E00197F1F700C027
:100140000000C8BB75BAFB01408148BB87EE93E055
:100150000197F1F700C00000C8BB65BAF401408107
:1001600048BB87EE93E00197F1F700C000002150F3
:100170003109E9F6B0CFAA1BBB1B51E107C0AA1F8A
:10018000BB1FA617B70710F0A61BB70B881F991F38
:100190005A95A9F780959095BC01CD010895F894E2
:0201A000FFCF8F
:0A01A200C0F9A4B0999282F8809091
:00000001FF
