:100000000C942A000C9447000C9447000C94470071
:100010000C9447000C9447000C9447000C94470044
:100020000C9447000C9447000C9447000C94470034
:100030000C9447000C9447000C9447000C94470024
:100040000C9447000C9447000C9447000C94470014
:100050000C94470011241FBECFE5D8E0DEBFCDBF12
:1000600010E0A0E6B0E0E6E3F2E002C005900D92F9
:10007000AA36B107D9F720E0AAE6B0E001C01D9288
:10008000AE36B207E1F70E9458000C9419010C94A7
:100090000000369A3699FECF84B195B1089592B397
:1000A000976092BB88BB82B3887F682B62BB089540
:1000B0008FEF87BB81B3876081BB82B3876082BBD0
:1000C00080E487B986E886B98FE19EE40197F1F76D
:1000D00000C000000E94490004E610E0CAE0D0E041
:1000E00038E0B32EC12CD12C76010E944900C80EF5
:1000F000D91EE11CF11C8FE99FE00197F1F700C0C8
:100100000000BA94B110F1CFA4EFB1E0A7019601BD
:100110000E94FF00705F8F4F9F4F2DE0969587954F
:10012000779567952A95D1F79B01683C710510F08A
:1001300027EC30E0C901B8010E94EB0060936D002C
:10014000C901BE010E94EB00282FCB01BE010E9415
:10015000EB0080936C0020936B008CE3E82E82B35D
:10016000876082BBF0906A00FF2051F091E0F916A1
:1001700011F1E0916B00F0E0E05AFF4F63E008C03E
:10018000E0916D00EE2339F0F0E0E05AFF4F66E0B9
:1001900080810E944F0081E08F0D8330C8F48093EE
:1001A0006A008FEC97E00197F1F700C00000EA9435
:1001B000E110D5CF95CFE0916C0080916D00811159
:1001C00002C0EE2341F3F0E0E05AFF4F65E0E0CFDC
:1001D00010926A00E6CFAA1BBB1B51E107C0AA1F01
:1001E000BB1FA617B70710F0A61BB70B881F991FD8
:1001F0005A95A9F780959095BC01CD0108950E946C
:100200000A01A59F900DB49F900DA49F800D911D94
:1002100011240895A29FB001B39FC001A39F700D48
:10022000811D1124911DB29F700D811D1124911DFE
:060230000895F894FFCFD1
:0A0236003F065B4F666D7D077F6F8A
:00000001FF
